:100000000C94B9000C94E4000C94E4000C94E00609
:100010000C94E4000C94E4000C94E4000C94E400D0
:100020000C94E4000C94E4000C94E4000C94E400C0
:100030000C94E4000C94E4000C9456070C94E40037
:100040000C94E4000C94E4000C94E4000C94E400A0
:100050000C94E4000C94E4000C94E4000C94E40090
:100060000C94E4000C94E4000C94E4000C94E40080
:100070000C94E4000C94E4000C9485010C94E400CE
:100080000C94E4000C94E4000C94E400F503F803F1
:10009000FB03FE0301040404070452544320777257
:1000A0006974652D31206661696C65642E2E00448B
:1000B0006174653A000000000000456E64000000B5
:1000C0000000000000000000000000000000000030
:1000D0000000000000000000000000000000000020
:1000E0000000000000000000000000000000000010
:1000F0000000000000000000000000000000000000
:1001000000000000000000000000000000000000EF
:1001100000000000000000000000000000000000DF
:1001200000000000000000000000000000000000CF
:1001300000000000000000000000000000000000BF
:1001400000000000000000000000000000000000AF
:10015000000000000000000000000000000000009F
:10016000000000000000000000000000000000008F
:10017000000011241FBECFEFD0E1DEBFCDBF84B79A
:100180008093010E14BE0FB6F894A89581B58861CE
:1001900081BD11BC0FBE1CE0A0E0B1E0E0E6F5E3DC
:1001A00000E00BBF02C007900D92A632B107D9F74D
:1001B0002EE0A6E2BCE001C01D92A130B207E1F73B
:1001C0000E94A1120C94861A0C94000008958115C7
:1001D000910511F00197F1F708951F93CF93DF93E5
:1001E000182F81110BC08091270C882389F083E19F
:1001F00090E00E94E7001092270C0AC0C1EDD3E006
:1002000080E00E94ED0087FFEECF2197C9F7EBCF8A
:1002100080916500112339F080618093650081E051
:100220008093270C03C08F7E8093650080916500CA
:10023000826080936500A798A698A598A498A39833
:10024000A298A198A098979A83E090E00E94E70076
:1002500093B373B363B353B343B333B323B383B32E
:100260009798A79AA69AA59AA49AA39AA29AA19AAD
:10027000A09AAF9AAE9AAD9AAC9AAB9AAA9AA99A5A
:10028000A89AE0916500ED7FE0936500E92FE078A2
:10029000972F90749E2B6072962B5071952B4870FF
:1002A000942B3470932B2270922B8170892BDF91C9
:1002B000CF911F91089581E00E94ED00089580E0A4
:1002C0000E94ED00089508950895089508950895F1
:1002D000A0E0B0E0EEE6F1E00C94A013E2E00C94B4
:1002E000BC13089508950895DC01CB018115910593
:1002F000A105B10529F081509040A040B040D9F748
:1003000008955F9BFECF8CB108951F920F920FB698
:100310000F9211240BB60F922F933F934F935F933D
:100320006F937F938F939F93AF93BF93EF93FF93BD
:1003300080919C0090919B0094FD35C09091A60CFB
:100340009E31A0F4E091A60C91E09E0F9093A60C34
:100350000E2E000CFF0BEB59F34F8083E091A60C9F
:100360000E2E000CFF0BEB59F34F10828A3011F068
:100370008D30C9F48091A60C8230ACF065E67CE04B
:1003800086E89CE00E94881681E08093850C80E0DE
:1003900090E0FC01EB59F34F1082019680329105F9
:1003A000C1F71092A60CFF91EF91BF91AF919F9171
:1003B0008F917F916F915F914F913F912F910F900E
:1003C0000BBE0F900FBE0F901F901895CF93C0914A
:1003D000850CC13049F440E250E066E87CE00E94C0
:1003E0008F161092850C01C0CFEF8C2FCF910895FE
:1003F000F8941AB81BB886E08093950087E689B90F
:100400001092900088E98AB978940895F89410922F
:10041000980083E38093990088E980939A0086E0AE
:1004200080939D00E9EFFDE085EA91E0938382836C
:10043000918380837894089580919B0087FFFCCFFF
:1004400080919C0008955D9BFECF8CB9089590919A
:100450009B0095FFFCCF80939C000895CF93DF9382
:10046000EC018991882319F00E942702FACFDF91CD
:10047000CF9108950E9427020895CF93DF93EC0156
:10048000CE01FE012491222331F02196FC018491BA
:100490000E942302F5CFDF91CF910895CF93DF9390
:1004A000EC01CE01FE012491222331F02196FC01C2
:1004B00084910E942702F5CFDF91CF910895CF93C9
:1004C000DF93EC018991882319F00E942302FACF6F
:1004D000DF91CF910895CF93DF93EC018991882329
:1004E00019F00E942702FACFDF91CF9108950E9460
:1004F000E005813019F48BE293E00FC080ED0E949B
:10050000FE05813019F48FE393E007C080E00E947C
:100510001406813059F489E593E09F938F930E94EC
:10052000D0160E9447060F900F9008950E9447062C
:1005300008950F931F93CF930E94E005813019F423
:100540008BE293E028C080ED0E94FE05813019F413
:100550008FE393E020C080E00E941406813019F4FC
:100560008EE693E018C00E94EF05813019F483E80D
:1005700093E011C081ED0E94FE05813019F48DE9F0
:1005800093E009C007EA1CE0C0E00E9425068E3710
:1005900059F487EB93E09F938F930E94D0160E94AB
:1005A00047060F900F900EC0F80181938F01CF5F27
:1005B000C63059F70E9436068E3759F38093AD0C3A
:1005C0000E944706CF911F910F9108950E949902B2
:1005D0002091A70C80912A0C281759F08091280CA3
:1005E0009091290C01969093290C8093280C2093CC
:1005F0002A0C8091280C9091290C08950E94990250
:10060000EEEAFCE01086A7EABCE08C91982F9F7080
:1006100090639783807782958F70806386832AE3C7
:10062000258311968C911197982F9F7090639483D6
:10063000807782958F7080638383228312968C915A
:10064000982F9F7090639183807382958F708063E1
:10065000808308950E949902E9EBFCE013861286DC
:10066000A7EABCE016968C911697982F9F7090631E
:100670009187082E000C990B807F992724E095958F
:1006800087952A95E1F78063808780E3878382E3FB
:1006900086832FE2258315968C911597982F9F704E
:1006A0009063948382958170806383832283149600
:1006B0008C91982F9F7090639183807382958F7037
:1006C0008063808308950E94FE028CEC93E09F93E8
:1006D0008F930E94D0168EEA9CE09F938F930E9486
:1006E000D0168AEE96E00E94EA160F900F900F90B7
:1006F0000F9008950E94FE028EEA9CE00895E7EABA
:10070000FCE0AEEABCE016968C911697877020E16B
:10071000829FC001112417969C9117979F70892B77
:10072000808313968C911397877020E1829FC0017C
:10073000112414969C9114979F70892B81838C911E
:10074000837020E1829FC001112411969C919F70BB
:10075000892B8283A9EBBCE01A968C911A9783832C
:100760008C91837020E1829FC001112411969C918D
:1007700011979F70892B848313968C911397282F40
:10078000217030E084E0220F331F8A95E1F7149640
:100790008C9114978F70282B258318968C9118971D
:1007A00020E18202C001112419969C919F70892B2F
:1007B000868308950E942A030E947F0382ED93E0BE
:1007C0009F938F930E94D0160F900F90E091AA0CE8
:1007D0008E2FEE0F990BAA0BBB0B87309105D0F42F
:1007E000FC01EA5BFF4F0C94701388ED93E014C09A
:1007F0008FED93E011C086EE93E00EC08EEE93E095
:100800000BC088EF93E008C081E094E005C088E069
:1008100094E002C081E194E09F938F930E94D016F0
:100820000F900F908AEE96E00E94EA1608950E94BB
:100830002A038FEA90E09F938F930E94D01689EB52
:100840009CE09F938F930E94D0168AEE96E00E94C0
:10085000EA160E94DA030F900F900F900F90089500
:10086000CF93DF930E94E005813019F48BE293E08F
:1008700007C080ED0E94FE05813061F48FE393E0B4
:100880009F938F930E94D0160E9447060F900F905F
:1008900081E019C080E00E941406813019F48AE9D1
:1008A00090E0EECFC7EADCE089910E941406813027
:1008B00019F489E194E0E4CF8CE0CA3AD807A1F7B3
:1008C0000E94470680E0DF91CF910895CF93DF9398
:1008D0000E94E005813019F48BE293E007C080EDBF
:1008E0000E94FE05813061F48FE393E09F938F9324
:1008F0000E94D0160E9447060F900F9081E019C009
:1009000083E00E941406813019F48EE693E0EECF66
:10091000CAEADCE089910E941406813019F481E36F
:1009200094E0E4CF8CE0CE3AD807A1F70E944706C6
:1009300080E0DF91CF910895A2E1B0E0E2EAF4E037
:100940000C949E1389E494E09F938F930E94D01699
:10095000FE013B96CE0143960F900F901E2F0F2F56
:100960001192E817F907E1F78D8581110BC0812FEE
:10097000902F0E94E60168E671E184E090E00E9419
:100980007401F2CF68E671E184E090E00E947401A6
:100990008B8590ED980F9330E8F58093AE0C9C8595
:1009A00020ED290F2A30B0F59093AF0C8370292FDA
:1009B0002F703AE08302C0011124820F911D4897E5
:1009C0004CF58E8590ED980F963020F58093B10C04
:1009D0008F8590ED980F9A30E8F48093B20C898956
:1009E00090ED980F9630B0F48093B40C8A8990ED16
:1009F000980F9A3078F48093B50C0E947F030E9480
:100A000030048DE694E09F938F930E94D0160F9050
:100A10000F900EC0CE0101969F938F938AE894E0C9
:100A20009F938F930E94D0160F900F900F900F906E
:100A30006296E4E00C94BA13A8E0B0E0E2E2F5E0DC
:100A40000C949A138E010F5F1F4F7E0139E0E30E65
:100A5000F11CF801D02EC12E1192EE15FF05E1F721
:100A60008EE994E09F938F930E94D0160F900F9081
:100A70002B81211104C0C8010E94E601F9CF8981B0
:100A800090ED980F943008F081C08093B90C8A8162
:100A900090ED980F9A3008F079C08093BA0C80914D
:100AA000B70C83703091B60C3F704AE08402C001ED
:100AB0001124830F911D80970CF068C0822F8D7FC9
:100AC0008D3219F0203209F061C02093BB0C8C816B
:100AD00090ED980F923008F059C08093BC0C9D8126
:100AE00020ED290F2A3008F051C09093BD0C83707F
:100AF000292F2F70EAE08E02C0011124820F911D70
:100B00000D970CF043C08E81982F9D7F9D3211F080
:100B10008032E1F58093BE0C82E38093BF0C80E3CA
:100B20008093C00C8F8190ED980F9A3078F5809368
:100B3000C10C888590ED980F9A3040F58093C20CD7
:100B400085EB94E09F938F930E94D0160F900F90A7
:100B5000F80111928F01EE15FF05D1F789818111FE
:100B600005C08D2D9C2D0E94E601F8CF90ED980FC9
:100B7000973060F48F708093C30C0E947F030E94B3
:100B8000660481110BC08EED94E002C089EF94E001
:100B90009F938F930E94D0160F900F902896E8E0B5
:100BA0000C94B613E4E7F0E0108282E180937000C9
:100BB00081E0809371001092720084E48083089534
:100BC00084EA809374008091740087FFFCCF909139
:100BD0007100987F81E0983009F480E0089584EAFC
:100BE000809374008091740087FFFCCF9091710016
:100BF000987F81E0903109F480E0089580FF02C081
:100C000020E401C028E18093730084E8809374009D
:100C10008091740087FFFCCF90917100987F81E0F4
:100C2000921301C080E008958093730084E880935C
:100C300074008091740087FFFCCF90917100987FC1
:100C400081E0983209F480E0089584EC8093740088
:100C50008091740087FFFCCF80917100887F803580
:100C600019F48091730008958EE7089584E88093C5
:100C700074008091740087FFFCCF80917100887FA1
:100C8000883519F48091730008958EE7089584E9FA
:100C90008093740008958115910511F00197F1F783
:100CA0000895ACE0B0E0E7E5F6E00C949C138BE02F
:100CB000898389E08A8386E08B8383E08C831D822D
:100CC00088E08E8385E08F8382E088878AE0898749
:100CD00087E08A8784E08B8781E08C878093B301EB
:100CE00000E0FF24FA9487E0E82E8091B30185307C
:100CF00080F5FABA8091B30187708BBB87E090E0F2
:100D00000E944B06EABA19B3169516951695A9F1E5
:100D10008CE592E00E944B0689B386958695869570
:100D200081132BC0143021F0183019F414E001C0E5
:100D300013E0E1E0F0E0EC0FFD1F84E0089FE00D20
:100D4000F11D1124E10FF11D319710811F3F11F4A6
:100D500014C01FEF80912B0C181741F01F3F31F08A
:100D600082E89DE90E944B06812F01C08FEF10930E
:100D70002B0C2C96E6E00C94B8130F5F033008F0B0
:100D800000E083E190E00E944B068091B301880F60
:100D90008093B301AACFF89480E380936A0084E043
:100DA00089BFE9E2FDE080E090E01192019684368F
:100DB0009105D9F790938E0D80938D0D78940895B9
:100DC0001F920F920FB60F9211248F938FB78FBF80
:100DD0008F910F900FBE0F901F9018951F930E9438
:100DE000E005813041F484EB91E00E94EA160E9414
:100DF00047061FEF1EC081E70E94FE05813071F497
:100E000089EC91E00E94EA1660E17EEA88E290E0D7
:100E10000E9474010E94470619E10BC00E94360629
:100E2000182F0E9447066AE67AE080E090E00E9470
:100E30007401812F1F9108951F93182F0E94E005C0
:100E4000813029F480EE91E00E94EA160FC080E71D
:100E50000E94FE05813071F484EF91E00E94EA1651
:100E600068E671E184E090E00E9474010E94470608
:100E700081E017C0812F0E941406813049F48EE072
:100E800092E00E94EA1660E17EEA88E290E0ECCF10
:100E90000E9447066AE67AE080E090E00E947401D2
:100EA00080E01F9108950E941C0708951F920F92E1
:100EB0000FB60F9211248F939F93AF93BF9380919E
:100EC0002C0C90912D0CA0912E0CB0912F0C019612
:100ED000A11DB11D80932C0C90932D0CA0932E0C72
:100EE000B0932F0CBF91AF919F918F910F900FBE38
:100EF0000F901F90189510BE1FBC81E08EBD87B764
:100F0000846087BF1DBC1CBC089560912C0C70913F
:100F10002D0C80912E0C90912F0C08959091300CF7
:100F2000981761F0982F9F71906497B98093300C57
:100F30006AE67AE080E090E00E947401369A369981
:100F4000FECF84B125B190E0922B089510926100FC
:100F5000109262008F71806487B986E886B908951F
:100F6000A6E1B0E0E6EBF7E00C9490136B017C0196
:100F7000442311F0139A1B98222311F0149A1C9801
:100F8000002311F0159A1D9860E074E284EF90E060
:100F9000A7019601220F331F441F551F0E944E13B5
:100FA00019012A0184E1E2E3F2E0DE0111960190E9
:100FB0000D928A95E1F700E010E081E08D8B1E8AAA
:100FC000B12CA12CF801EE0FFF1FEE0FFF1F81E0E7
:100FD00090E08C0F9D1FE80FF91F60807180828068
:100FE0009380C201B1019301A4010E944E13211507
:100FF000310591E049075105E8F42093310C309315
:10100000320C4093330C5093340C30938100209376
:10101000800080918A00887F80938A0080918A0076
:101020000F5F082B00938A006D8A7E8AB82CA92C4A
:1010300005E010E00F5F1F4F053011051CF2809195
:101040008B00806880938B0080918B0080628093FE
:101050008B0080918B00886080938B0080918B0047
:10106000826080938B0080918A00806180938A00E7
:1010700089E095E09F938F930E94D016AF92BF9224
:101080008E898F939D899F9384E195E09F938F93A1
:101090000E94D016FF92EF92DF92CF928AE295E003
:1010A0009F938F930E94D0168091310C9091320CB7
:1010B000A091330CB091340CBF93AF939F938F9357
:1010C00082E495E09F938F930E94D0160FB6F89418
:1010D000DEBF0FBECDBF6696E2E10C94AC13CF929B
:1010E000DF92EF92FF9220918600309187002115C8
:1010F000310531F1A4E6B0E00E9479136B017C0167
:101100002091310C3091320C4091330C5091340CC1
:101110000E944E132436310541055105A1F020915E
:10112000310C3091320C4091330C5091340CC7018A
:10113000B6010E944E132F5F3F4F4F4F5F4F03C0CA
:1011400020E030E0A901CA01B901FF90EF90DF90E3
:10115000CF900895811105C01092870010928600EB
:1011600008952091310C3091320C4091330C509104
:10117000340CA62F660FBB0B0E94881324E630E0C8
:1011800040E050E00E944E13309387002093860089
:101190000895811105C01092850010928400089571
:1011A0002091310C3091320C4091330C5091340C21
:1011B000A62F660FBB0B0E94881324E630E040E0A8
:1011C00050E00E944E1330938500209384000895D0
:1011D000811105C010928300109282000895209121
:1011E000310C3091320C4091330C5091340CA62FBD
:1011F000660FBB0B0E94881324E630E040E050E00D
:101200000E944E1330938300209382000895362F5E
:10121000272F90E065E070E00E943A13E32FF22F51
:1012200080E090E020E23FEF8617970714F43083C8
:1012300001C020830196319684319105A9F7089564
:10124000E0918F0DF091900D309709F00995089578
:10125000EF92FF921F93CF93DF93EC017C0120EA82
:10126000E20EF11CF70180811BE19E01189F200D09
:10127000311D1124C9014A969F938F931F9283E0D9
:101280008F930E94E90AF7018081DE01189FA00D6B
:10129000B11D11249F961C921E929E97C456DF4F3B
:1012A000E881F9810F900F900F900F90309721F007
:1012B00057966C9181E00995DF91CF911F91FF9036
:1012C000EF900895CF93DF93EC016FE575E0019601
:1012D0000E947F16892B69F0FE01E056FF4F1082B5
:1012E000CE010E94280987E09AE09093900D8093A8
:1012F0008F0DDF91CF910895FC01218D328D2F5FED
:101300003F4F328F218F08951092900D10928F0DC4
:1013100084569F4FDC01ED91FC9160E080E00995DF
:101320000895BC016B3E8FEF7807A1F090E08BE150
:10133000292F30E0829FA001839F500D1124465E2B
:101340005F4F460F571F452B11F09F5FF1CFC9012B
:101350000197089580E090E008950F931F93CF9335
:101360008C01FC01E056FF4F2081C1E0C20FC08319
:101370000E9491092C2F30E02817390720F0C8016E
:101380000E94840903C0C8010E942809CF911F91BF
:101390000F9108950F931F93CF93DF93EC018C016E
:1013A00000561F4FF8018081FE019BE1899FE00DEF
:1013B000F11D112426A537A5808D918D82179307E5
:1013C00018F4CE010E94AD09F8018081FBE18F9FE6
:1013D000C00DD11D11249FA59F939EA59F931F9281
:1013E0008F9389E695E09F938F931F9282E08F936E
:1013F0000E94E90A8DB79EB708960FB6F8949EBF73
:101400000FBE8DBFDF91CF911F910F910895FC0109
:10141000E056FF4F2081FC013BE1239FE00DF11DD1
:10142000112426A537A52F5F3F4F37A726A70E9477
:10143000CA0908950F931F93CF93DF938C016AE03D
:1014400070E081E090E00E94E613EC01F8019183E6
:10145000808361E070E084E190E00E94E6139B836A
:101460008A8361E070E084E190E00E94E6139D834E
:101470008C8361E070E084E190E00E94E6139F833A
:101480008E8361E070E084E190E00E94E61399872A
:10149000888761E070E084E190E00E94E613998320
:1014A0008883DF91CF911F910F9108959F938F9320
:1014B000DB01ED91FC9181818F9380818F930E945C
:1014C0001A170F900F900F900F900895E091910DC3
:1014D000F091920D0190F081E02D8081918108952D
:1014E0009093920D8093910D0E9465010895089547
:1014F0000E946501A091910DB091920DED91FC912A
:101500001197309709F464C0AB2B09F461C0828154
:101510009381009779F09F938F931F921F921F9250
:1015200081E08F930E9468010F900F900F900F90B1
:101530000F900F90E091910DF091920D0190F0813C
:10154000E02D84819581009779F09F938F931F926E
:101550001F921F9282E08F930E9468010F900F905C
:101560000F900F900F900F90E091910DF091920DD0
:101570000190F081E02D86819781009779F09F930B
:101580008F931F921F921F9283E08F930E94680196
:101590000F900F900F900F900F900F90E091910D82
:1015A000F091920D0190F081E02D8085918500975A
:1015B00079F09F938F931F921F921F9284E08F93D5
:1015C0000E9468010F900F900F900F900F900F9056
:1015D0000895A4E1B0E0EFEEFAE00C949C13ED8CDA
:1015E000FE8C9E012F5D3F4F4F8D58A163E170E04F
:1015F0008E010F5F1F4FC8010E94491782E0E81655
:10160000F10441F194F481E0E816F10409F042C0DC
:101610001F930F93E091910DF091920D0190F08145
:10162000E02D83818F9382812EC083E0E816F10440
:10163000F1F084E0E816F10469F51F930F93E0914F
:10164000910DF091920D0190F081E02D81858F93A5
:10165000808519C01F930F93E091910DF091920D29
:101660000190F081E02D85818F9384810CC01F93C0
:101670000F93E091910DF091920D0190F081E02D8A
:1016800087818F9386818F930E941A170F900F90F6
:101690000F900F906496E6E00C94B813A4E1B0E0CC
:1016A000E4E5FBE00C949A13EF8CF8A0C9A0DAA053
:1016B0009E012B5D3F4F4BA15CA163E170E08E0169
:1016C0000F5F1F4FC8010E94491782E0E816F1041E
:1016D000F9F06CF4B1E0EB16F10491F51F930F9360
:1016E000D601ED91FC9183818F93828122C083E0AA
:1016F000E816F104B1F0A4E0EA16F10409F51F932D
:101700000F93D601ED91FC9181858F93808511C057
:101710001F930F93D601ED91FC9185818F93848166
:1017200008C01F930F93D601ED91FC9187818F9391
:1017300086818F930E941A170F900F900F900F9031
:101740006496E8E00C94B613CF93DF93EC01E3E9E1
:10175000FDE083EE91E09183808382E491E09383C6
:10176000828381EA90E09583848380E090E0978390
:10177000868364E278E680E090E00E9474018DE761
:1017800095E00E94EA1641EA50E063EE71E088813C
:1017900099810E944F1A41EA50E062E471E08A8127
:1017A0009B810E944F1A41EA50E061EA70E08C810F
:1017B0009D810E944F1A41EA50E060E070E08E8106
:1017C0009F810E944F1A68E671E184E090E00E94D8
:1017D0007401DF91CF910895EF92FF920F931F93C1
:1017E000CF93DF938C017B018BE995E00E94EA1691
:1017F000CDEEDDE061EA70E081E090E00E94E6136A
:1018000089939993FC01E256FF4FF182E08232976F
:10181000118300838DE0C53FD80761F78DEE9DE011
:101820000E94A40BCDB7DEB7E6E00C94B813CF93BB
:10183000DF93EC018AEB95E00E94EA16CE010E944C
:101840004E0F41EA50E063EE71E0CE010E945F1A54
:101850008CEE95E00E94EA1668E671E184E090E083
:101860000E947401DF91CF910895CF93DF93EC0133
:101870008AEB95E00E94EA16888199810E944E0FBA
:1018800041EA50E063EE71E0888199810E945F1A1D
:101890008CEE95E00E94EA1668E671E184E090E043
:1018A0000E94740187EF95E00E94EA168A819B816D
:1018B0000E944E0F41EA50E062E471E08A819B8110
:1018C0000E945F1A8CEE95E00E94EA1668E671E1CC
:1018D00084E090E00E94740189E296E00E94EA169A
:1018E0008C819D810E944E0F41EA50E061EA70E0D8
:1018F0008C819D810E945F1A8CEE95E00E94EA1611
:1019000068E671E184E090E00E9474018AEB95E062
:101910000E94EA168E819F810E944E0F41EA50E09C
:1019200060E070E08E819F810E945F1A8CEE95E0EE
:101930000E94EA1668E671E184E090E00E9474017A
:10194000DF91CF910895CF93DF93EC018BE596E083
:101950009F938F93FE0109950F900F908091010E38
:10196000843091F038F4813061F0823099F487E866
:1019700096E012C0883059F0803161F48EEB96E029
:101980000BC083E796E008C088E996E005C08DEAC1
:1019900096E002C08FEC96E09F938F93FE0109952D
:1019A0000F900F90DF91CF91089586E89CE00E9400
:1019B000E601813089F44AE050E060E070E086E8BA
:1019C0009CE00E942315862FE6E8FCE011929CE043
:1019D000E63AF907D9F708958FEF08958115910533
:1019E00011F00197F1F7089583B381700895A89AD3
:1019F000A09A0895A898A0980895CF93A898A09A1F
:101A00008FE897E00E94EE0CCFB7F894A09889E099
:101A100091E00E94EE0CCFBF789483B3C82FC170C1
:101A200080FD08C085E896E00E94EE0C989903C0FE
:101A3000C2E001C0C3E08C2FCF910895CF93DF9314
:101A4000C82FDFB7F894A898A09A87E090E00E948A
:101A5000EE0CC111A09880E390E00E94EE0C989BE0
:101A6000C0E085EB90E00E94EE0CA098DFBF789478
:101A700088E790E00E94EE0C8C2FDF91CF910895C3
:101A8000CF93DF93C82FD8E08C2F81700E941E0D5A
:101A9000C6958111C068D150B9F78C2FDF91CF91D5
:101AA00008958FEF0E94400D0895EF92FF921F93CB
:101AB000CF93DF93182FEB010E94FD0C811117C00B
:101AC000209771F085E50E94400D7E0188E0E80EC8
:101AD000F11C89910E94400DEC16FD06D1F703C060
:101AE0008CEC0E94400D812F0E94400D80E0DF9120
:101AF000CF911F91FF90EF900895AF92BF92CF9238
:101B0000DF92FF920F931F93CF93DF93CDB7DEB792
:101B100029970FB6F894DEBF0FBECDBF6B018E01C3
:101B20000F5F1F4F29E0F80111922A95E9F7FB0199
:101B30001082BC018EEB0E94550DF82E811115C04C
:101B40005E01FAE0AF0EB11C0E94510DF8018193C5
:101B50008F01EA15FB05C1F789818F3F21F086953A
:101B6000F601808302C083E0F82E8F2D29960FB6F0
:101B7000F894DEBF0FBECDBFDF91CF911F910F91C3
:101B8000FF90DF90CF90BF90AF900895CF930E94C9
:101B9000FD0CC82F8CEC0E94400D84E40E94400D87
:101BA0000E94F70C8C2FCF9108958A3060F490E05A
:101BB000FC01E75CF34F2081FB012083FC01ED5B1E
:101BC000F34F8081089584E00895CF92DF92EF92E1
:101BD000FF920F931F930E9485070091350C10917F
:101BE000360C2091370C3091380C6B017C01C01AF7
:101BF000D10AE20AF30A970186010A371105210585
:101C0000310508F45AC06093350C7093360C8093FC
:101C1000370C9093380C69E37CE086E492E00E94F4
:101C20007D0D8093430C6AE37CE08FE492E00E9498
:101C30007D0D8093440C6BE37CE086ED93E00E9485
:101C40007D0D8093450C6CE37CE086ED93E00E9473
:101C50007D0D8093460C6DE37CE086ED93E00E9461
:101C60007D0D8093470C6EE37CE086ED93E00E944F
:101C70007D0D8093480C6FE37CE086ED93E00E943D
:101C80007D0D8093490C60E47CE086ED93E00E943A
:101C90007D0D80934A0C61E47CE086ED93E00E9428
:101CA0007D0D80934B0C62E47CE086ED93E00E9416
:101CB0007D0D80934C0C0E94C60D1F910F91FF90DB
:101CC000EF90DF90CF900895A0E0B0E0EAE6FEE06C
:101CD0000C949B13E82E8B010E94FD0C811135C0E2
:101CE00080EF0E94400DD0E0C0E488EFD82EDC0EDB
:101CF00081E00E941E0DF82E81E00E941E0D8823B7
:101D000019F0FF2071F023C0F1100BC0CE1530F098
:101D1000F801808180FF05C0EC1619F0DC2FFF244C
:101D2000F3948F2D0E941E0DF80180818695FF206F
:101D300011F08068F8018083C150CD11D9CF0F5FB9
:101D40001F4FC111D2CF8D2F03C08FEF01C08EEF77
:101D5000CDB7DEB7E7E00C94B7130F931F93CF9383
:101D6000DF938C01EB01BE01F80180810E94640EBB
:101D7000F801808381508D3F18F48881803199F774
:101D8000DF91CF911F910F910895A9E0B0E0EBECA6
:101D9000FEE00C9494138FEF89879BE9C92E9DE098
:101DA000D92E00E010E02CEF622E26E0722E39E0F2
:101DB000A32E37E0B32EF02E8985882309F44FC077
:101DC0000A30110509F449C0BE016F5F7F4FCE0193
:101DD00009960E94AD0E89858F3F19F489ED96E032
:101DE00004C08E3F49F48CEE96E09F938F930E943F
:101DF000D0160F900F9033C01F930F937F926F9266
:101E00000E94D016CE0101964C010F900F900F90BA
:101E10000F90E12CF12CF40181914F01F601EE0DB0
:101E2000FF1D80831F928F93BF92AF920E94D016A6
:101E3000FFEFEF1AFF0A0F900F900F900F9088E0BE
:101E4000E816F10441F78AE090E00E94E4160F5F83
:101E50001F4F98E0C90ED11CAECF8AE0F82E8F2D0F
:101E60002996EEE00C94B013FC0184818F9383815A
:101E70008F9382811F928F933596FF93EF938EE01D
:101E800097E09F938F930E94D0168DB79EB70896C8
:101E90000FB6F8949EBF0FBE8DBF08950F931F938A
:101EA000CF93DF93EC0185E397E00E94EA16CE0121
:101EB00001969F938F9388811F928F938AE697E074
:101EC0009F938F930E94D01685E397E00E94EA16B5
:101ED0008E010B5E1F4FC456DF4F0F900F900F9077
:101EE0000F900F900F90C8010E94340F80E897E088
:101EF0000E94EA16055E1F4F0C171D07A1F785E328
:101F000097E00E94EA16DF91CF911F910F910895FB
:101F100080E897E00E94EA1680915E0C1F928F93F2
:101F200080915F0C1F928F938091600C1F928F9312
:101F300085EB97E09F938F930E94D01680E897E0FF
:101F40000E94EA168DB79EB708960FB6F8949EBF0A
:101F50000FBE8DBF08950F931F93CF93DF93C82FAC
:101F60008DED97E00E94EA160E94880FCA3009F4AE
:101F7000C2C018F0CB30F9F01BC060914D0C70E07E
:101F8000625B734F4AE08C2F90E00E94A3161F9271
:101F9000CF938BE098E09F938F930E94D01680910F
:101FA0004D0C8F5F80934D0C0F900F900F900F9002
:101FB000CEE4DCE0ADC080915E0C813079F5E0913B
:101FC000600CF0E0EE0FFF1FE351F24F0081118132
:101FD000C0915F0CD0E08EE49CE00E9451164BE172
:101FE0004C9F90014D9F300D1124F801E20FF31F1B
:101FF000878B265E3F4F200F311F3F932F939927EA
:102000009F938F9382E298E09F938F930E94D016C4
:102010000F900F900F900F900F900F9080915E0C8B
:10202000823079F5E091600CF0E0EE0FFF1FE35194
:10203000F24F00811181C0915F0CD0E08EE49CE0F2
:102040000E9451164BE14C9F90014D9F300D112481
:10205000F801E20FF31F808F918F265E3F4F200F14
:10206000311F3F932F939F938F938DE398E09F931E
:102070008F930E94D0160F900F900F900F900F909B
:102080000F904AE050E060E070E08EE49CE00E9437
:1020900023159F938F937F936F9384E598E09F938D
:1020A0008F930E94D016E091600CF0E0EE0FFF1FBE
:1020B000E351F24F808191810E944E0FE091600CBC
:1020C000F0E0EE0FFF1FE351F24F808191810E94FB
:1020D000170CE091600CF0E0EE0FFF1FE351F24FA0
:1020E000808191810E944E0F0F900F900F900F9062
:1020F0000F900F905DCF1092600C10925F0C1092B9
:102100005E0C8DE990E19093EC0D8093EB0D50CF38
:102110008991882329F0082E000C990B0E94E4165F
:102120008CE0CE35D807A1F78AEE96E00E94EA1639
:10213000DF91CF911F910F910895CF93C82F82E621
:1021400098E00E94EA160E94880FC130A1F488E846
:1021500098E00E94EA1686EB98E00E94EA1689ED64
:1021600098E00E94EA161092600C85E791E1909346
:10217000EC0D8093EB0DCF910895CF939FEF980FC7
:102180009430A8F5C82F80E897E00E94EA168CEEFC
:1021900098E00E94EA16EC2FF0E0EE0FFF1FE351EB
:1021A000F24F0190F081E02DCF0101969F938F9324
:1021B00080811F928F931F92CF938FEF98E09F9310
:1021C0008F930E94D0168CE099E00E94EA1680E27C
:1021D00099E00E94EA1680E897E00E94EA168DB71F
:1021E0009EB708960FB6F8949EBF0FBE8DBFCF91D5
:1021F0000895CF93DF93C82F80915E0C1F928F9329
:1022000080915F0C1F928F938091600C1F928F932F
:1022100084E399E09F938F930E94D0168DB79EB769
:1022200008960FB6F8949EBF0FBE8DBFC53008F05C
:1022300059C080915F0C853008F054C080E897E069
:102240000E94EA1682E499E00E94EA16E091600C8E
:10225000F0E0EE0FFF1FE351F24F808191812BE1FF
:10226000C29FE00111249E01265E3F4F280F391FB7
:102270003F932F93FC01EC0FFD1F85891F928F93D5
:102280008BE498E09F938F930E94D016E091600CAE
:10229000F0E0EE0FFF1FE351F24F80819181C80FF4
:1022A000D91F898D8F93888D8F938F891F928F93DC
:1022B00082E599E09F938F930E94D0168CE099E07D
:1022C0000E94EA1680E299E00E94EA1680E897E010
:1022D0000E94EA168DB79EB70C960FB6F8949EBF73
:1022E0000FBE8DBFDF91CF910895CF93DF93C82F9D
:1022F0008CE699E00E94EA160E94880FC530B0F47F
:10230000C13070F1DFEFDC0FD093600C1F92CF93E0
:102310008FE999E09F938F930E94D0168D2F0E9492
:10232000BD100F900F900F900F902AC0CB3041F549
:102330008AEB99E00E94EA1684EF99E00E94EA167F
:1023400089ED98E00E94EA1610925F0C8EED91E103
:102350009093EC0D8093EB0D80E00E94F91010C07B
:1023600084E19AE00E94EA161092600C10925F0CD1
:1023700010925E0C8DE990E19093EC0D8093EB0D43
:10238000DF91CF91089580915E0C1F928F93809181
:102390005F0C1F928F938091600C1F928F9384E348
:1023A00099E09F938F930E94D0168DB79EB70896A1
:1023B0000FB6F8949EBF0FBE8DBF0895CF93C82F60
:1023C0008DE39AE00E94EA160E94880FC63048F416
:1023D000C13028F18FEF8C0F80935F0C0E94F910B1
:1023E0002EC0CB3061F58DE69AE00E94EA1685EAB0
:1023F0009AE00E94EA1688EB9AE00E94EA1689EDBC
:1024000098E00E94EA1610925E0C8CE392E19093A1
:10241000EC0D8093EB0D80E00E94C31110C084E1AD
:102420009AE00E94EA161092600C10925F0C1092D3
:102430005E0C8DE990E19093EC0D8093EB0DCF91C4
:102440000895813029F0823031F482EE9AE005C09F
:102450008AEC9AE002C08EEF9AE00E94EA1686E1CA
:102460009BE00E94EA160895EEE4FCE011928CE0F5
:10247000EE35F807D9F70895CF93C82F80E49BE095
:102480000E94EA160E94880FC13039F0A0F1C230D4
:1024900099F0CB3009F43FC052C080915F0C90E0BE
:1024A00001969F938F938091600C90E001969F938B
:1024B0008F9381E79BE00EC080915F0C90E00196C6
:1024C0009F938F938091600C90E001969F938F93E0
:1024D00082EA9BE09F938F930E94D0168CE099E054
:1024E0000E94EA16C0935E0C0F900F900F900F9011
:1024F0000F900F9024C084E19AE00E94EA16109297
:10250000600C10925F0C10925E0C8DE990E190933C
:10251000EC0D8093EB0D82ED9BE00E94EA168BEEB2
:102520009BE00E94EA168BE09CE00E94EA160E9463
:1025300034128BEA9FE09093EC0D8093EB0DCF91DA
:1025400008958FEF809364001092650014BA15BA55
:102550001ABA1BBA11BA80E887BB0E94060264EB64
:1025600078E082E090E00E94740187E792E00E94A8
:10257000EA1664EB78E082E090E00E9474010E9429
:1025800073010E94CB0684E892E00E94EA160E9442
:102590007B078EE992E00E94EA1680E00E94A6077F
:1025A00089EB92E00E94EA160E94D20586ED92E045
:1025B0000E94EA168FEE92E00E94EA160E9417042B
:1025C0000E9463030E94DA0380ED96E10E94A30C4F
:1025D0008EEF92E09F938F931F9281E08F931F92D3
:1025E0008F930E94680160E279E08AEA98E00E9495
:1025F000EC0B8DE990E19093EC0D8093EB0D00E0F6
:1026000020E041E067E070E080E090E00E94B007E9
:1026100080E00E94BD10789481EAE0EDF0E0A4E053
:10262000B1E001900D928A95E1F70F900F900F9015
:102630000F900F900F900EE013E00E945106C82FEC
:102640008F3F81F01F928F931F930F930E94D0169C
:10265000E091EB0DF091EC0D8C2F09950F900F9000
:102660000F900F9060ED72E288E090E00E9474019C
:10267000A895E3CF97FB072E16F4009407D077FDBB
:1026800009D00E94C71307FC05D03EF490958195B0
:102690009F4F0895709561957F4F0895A1E21A2E7E
:1026A000AA1BBB1BFD010DC0AA1FBB1FEE1FFF1FF6
:1026B000A217B307E407F50720F0A21BB30BE40B46
:1026C000F50B661F771F881F991F1A9469F760958D
:1026D0007095809590959B01AC01BD01CF01089547
:1026E000EE0FFF1F0024001C0BBE0790F691E02D9B
:1026F0000994A29FB001B39FC001A39F700D811DDB
:102700001124911DB29F700D811D1124911D0895FA
:10271000B7FF0C94DB130E94DB13821B930B08950D
:102720002F923F924F925F926F927F928F929F92E1
:10273000AF92BF92CF92DF92EF92FF920F931F93CF
:10274000CF93DF93CDB7DEB7CA1BDB0B0FB6F89480
:10275000DEBF0FBECDBF09942A88398848885F84C0
:102760006E847D848C849B84AA84B984C884DF8031
:10277000EE80FD800C811B81AA81B981CE0FD11D15
:102780000FB6F894DEBF0FBECDBFED010895AA1BB2
:10279000BB1B51E107C0AA1FBB1FA617B70710F04C
:1027A000A61BB70B881F991F5A95A9F7809590957E
:1027B000BC01CD0108950E947913A59F900DB49F8F
:1027C000900DA49F800D911D112408950F931F93C8
:1027D000CF93DF93869F8001879F100D969F100DEA
:1027E0001124C8010E940214EC01009729F0A801ED
:1027F00060E070E00E947816CE01DF91CF911F91CA
:102800000F9108950F931F93CF93DF93823091051B
:1028100010F482E090E0E091F70DF091F80D20E0E7
:1028200030E0A0E0B0E0309719F1408151810281A1
:10283000138148175907C8F08417950769F4109752
:1028400031F012960C93129713961C9327C00093A5
:10285000F70D1093F80D22C02115310519F042171C
:10286000530718F49A01BD01EF01DF01F801DBCF36
:1028700021153105F9F0281B390B2430310580F47E
:102880008A819B816115710521F0FB01938382830D
:1028900004C09093F80D8093F70DFE01329644C06A
:1028A000FE01E20FF31F8193919322503109398386
:1028B00028833AC02091F50D3091F60D232B41F479
:1028C00020912602309127023093F60D2093F50DCA
:1028D00020912402309125022115310541F42DB7B4
:1028E0003EB74091280250912902241B350BE091FC
:1028F000F50DF091F60DE217F307A0F42E1B3F0B38
:102900002817390778F0AC014E5F5F4F2417350761
:1029100048F04E0F5F1F5093F60D4093F50D8193D5
:10292000919302C0E0E0F0E0CF01DF91CF911F91E1
:102930000F910895CF93DF93009709F481C0FC01B4
:10294000329713821282A091F70DB091F80D109773
:1029500081F420813181820F931F2091F50D3091F8
:10296000F60D2817390751F5F093F60DE093F50DA4
:1029700067C0ED0120E030E0CE17DF0740F44A8168
:102980005B819E0141155105F1F0EA01F5CFD3833A
:10299000C28340815181840F951FC817D90759F40C
:1029A00088819981840F951F0296918380838A8103
:1029B0009B81938382832115310529F4F093F80DCF
:1029C000E093F70D3DC0E901FB83EA8349915991FA
:1029D000C40FD51FEC17FD0761F480819181840F2E
:1029E000951F0296E90199838883828193819B8355
:1029F0008A83E0E0F0E012968D919C911397009706
:102A000019F0FD01DC01F7CF8D919C9111979D018B
:102A10002E5F3F4F820F931F2091F50D3091F60DE1
:102A20002817390769F4309729F41092F80D10929D
:102A3000F70D02C013821282B093F60DA093F50D2C
:102A4000DF91CF9108953F924F925F926F927F9264
:102A50008F929F92AF92BF92CF92DF92EF92FF92AE
:102A60000F931F93CF93DF935C016B017A01611584
:102A7000710519F0FB0191838083E114F10429F0C1
:102A8000C7010297839708F0E5C0E5012196F5019B
:102A90001081812F90E00E946F16892B11F05E014A
:102AA000F4CF1D3229F42196F501118101E007C010
:102AB0001B3221F4E5012296F501118100E0E114B9
:102AC000F10409F1F0E1EF16F10429F43FC010E33D
:102AD000E114F10421F128E0E216F10401F154F4CB
:102AE000E2E0EE16F10421F5812C912CA12CB0E44A
:102AF000BB2E3EC0FAE0EF16F10439F020E1E216F9
:102B0000F104B1F430C0103319F1FAE0EF2EF12CDA
:102B1000ACEC8A2E982CA82CACE0BA2E29C078E018
:102B2000E72EF12C812C912CA12CE0E1BE2E20C0AF
:102B300060E070E080E090E897010F2C000C440BFF
:102B4000550B0E944E1349015A0112C0103359F41B
:102B500088818F7D883509F0BACF1981229602606D
:102B600080E1E82EF12C812C912CA12C68E0B62E6E
:102B700040E060E070E0CB0127010F2C000C6608FC
:102B80007708FE0150ED352E310E29E0231570F443
:102B90002FEB210F2A3118F439EC332E06C02FE920
:102BA000210F2A3118F529EA322E310E232D30E07B
:102BB0002E153F05DCF447FD16C086169706A806BD
:102BC000B90670F0A30192010E94761A630D711D7F
:102BD000811D911D61307105810520E8920710F07B
:102BE0004FEF01C041E021961081CBCF202F217003
:102BF000C114D10471F0442329F02197F601D18347
:102C0000C08307C001FF19C02297F601D183C0839A
:102C100014C047FF12C0222329F060E070E080E07A
:102C200090E804C06FEF7FEF8FEF9FE722E230E084
:102C30003093000E2093FF0D09C0222381F0909560
:102C40008095709561957F4F8F4F9F4F462F372FFF
:102C5000282F12C040E030E020E090E00DC097FF48
:102C6000F5CF82E290E09093000E8093FF0D6FEF1E
:102C70007FEF8FEF9FE7EACF642F732F822FDF91D3
:102C8000CF911F910F91FF90EF90DF90CF90BF9069
:102C9000AF909F908F907F906F905F904F903F90FC
:102CA0000895FC0188279927E89421912032E9F3BF
:102CB000293010F02E30C8F32B3241F02D3239F488
:102CC000689404C00E94AE16820F911D219120537A
:102CD0002A30C0F31EF4909581959F4F089591116D
:102CE0000C948C19803219F089508550C8F70895DA
:102CF000DC0101C06D9341505040E0F70895FB01A5
:102D0000DC018D91019080190110D9F3990B089580
:102D1000FB01DC0101900D920020E1F70895DC0138
:102D2000FB014150504058F049F001900D920020B5
:102D3000C1F7E61BF70B3197CF0108951C92019064
:102D40000020E9F7F6CFBB274A3031F4992322F46B
:102D5000BDE2909581959F4F0C94B7167AE0979FAE
:102D6000902D879F802D910D11240895BB27FB0185
:102D70005527AA27880F991FAA1FA41710F0A41B74
:102D800083955051B9F7A05DAA3308F0A95DA193CE
:102D9000009779F7B111B1931192CB010C94A51959
:102DA000CF93DF93CDB7DEB7AE014B5F5F4FFA0134
:102DB00061917191AF018091FB0D9091FC0D0E948A
:102DC0008217DF91CF9108956091FB0D7091FC0DFA
:102DD0000C94B5190F931F93CF93DF93E091FB0DE4
:102DE000F091FC0D238121FF1BC08C01D0E0C0E0DD
:102DF000F80181918F016091FB0D7091FC0DDB0159
:102E00001896ED91FC911997882331F00995892B3B
:102E100079F3DFEFCFEFECCF8AE00995892B19F03A
:102E20008FEF9FEF02C08D2F9C2FDF91CF911F91CD
:102E30000F9108950F931F93CF93DF93CDB7DEB714
:102E40002E970FB6F894DEBF0FBECDBF0D891E8939
:102E500086E08C831A8309838FEF9FE79E838D839F
:102E6000AE01475E5F4F6F89788DCE0101960E945B
:102E70008217EF81F885E00FF11F10822E960FB6B2
:102E8000F894DEBF0FBECDBFDF91CF911F910F91A0
:102E900008950F931F93CF93DF93CDB7DEB72E978F
:102EA0000FB6F894DEBF0FBECDBF8C01FA0186E0ED
:102EB0008C831A83098377FF02C060E070E8CB013E
:102EC00001979E838D83A901BF01CE0101960E94C7
:102ED00082174D815E8157FD0AC02F8138854217C8
:102EE00053070CF49A01F801E20FF31F10822E969B
:102EF0000FB6F894DEBF0FBECDBFDF91CF911F910B
:102F00000F9108952F923F924F925F926F927F920E
:102F10008F929F92AF92BF92CF92DF92EF92FF92E9
:102F20000F931F93CF93DF93CDB7DEB72B970FB6D9
:102F3000F894DEBF0FBECDBF6C017B018A01FC019E
:102F400017821682838181FFCCC1CE0101963C019C
:102F5000F6019381F70193FD859193FF81917F01A4
:102F6000882309F4BAC1853239F493FD859193FF22
:102F700081917F01853229F4B60190E00E94B51954
:102F8000E7CF912C212C312CFFE1F315D8F08B32B7
:102F900079F038F4803279F08332A1F4232D206166
:102FA0001DC08D3261F0803369F4232D216016C07D
:102FB000832D8260382EE32DE4603E2E2AC0F32D4F
:102FC000F8601DC037FC2DC020ED280F2A3040F0DE
:102FD0008E32B9F436FC81C1232D2064322E19C003
:102FE00036FE06C08AE0989E200D1124922E11C054
:102FF000EAE02E9E200D1124222EF32DF0623F2EAA
:1030000008C08C3621F4832D8068382E02C08836A3
:1030100041F4F70193FD859193FF81917F01811127
:10302000B3CF982F9F7D9554933028F40C5F1F4F9A
:103030009FE399830DC0833631F0833771F0833578
:1030400009F059C021C0F801808189830E5F1F4FAC
:1030500088248394912C530113C02801F2E04F0E71
:10306000511CF801A080B18036FE03C0692D70E0CC
:1030700002C06FEF7FEFC5010E949A194C018201D7
:10308000F32DFF773F2E16C0280122E0420E511C7F
:10309000F801A080B18036FE03C0692D70E002C047
:1030A0006FEF7FEFC5010E948F194C01F32DF0687F
:1030B0003F2E820133FC1BC0822D90E088169906BA
:1030C000B0F4B60180E290E00E94B5192A94F4CFE2
:1030D000F50137FC859137FE81915F01B60190E0E3
:1030E0000E94B51921102A9421E0821A91088114B6
:1030F000910471F7E8C0843611F0893641F5F80182
:1031000037FE07C060817181828193810C5F1F4F00
:1031100008C060817181072E000C880B990B0E5F2F
:103120001F4FF32DFF763F2E97FF09C09095809596
:10313000709561957F4F8F4F9F4FF0683F2E2AE02B
:1031400030E0A3010E94F119882E861845C085370A
:1031500031F4232D2F7EB22E2AE030E025C0932DAE
:10316000997FB92E8F36C1F018F4883579F0B5C043
:10317000803719F0883721F0B0C0E92FE061BE2E0A
:10318000B4FE0DC0FB2DF460BF2E09C034FE0AC092
:10319000292F2660B22E06C028E030E005C020E1CD
:1031A00030E002C020E132E0F801B7FE07C06081E4
:1031B0007181828193810C5F1F4F06C06081718194
:1031C00080E090E00E5F1F4FA3010E94F119882E4E
:1031D0008618FB2DFF773F2E36FE0DC0232D2E7F48
:1031E000A22E891458F434FE0BC032FC09C0832D82
:1031F0008E7EA82E05C0B82CA32C03C0B82C01C00D
:10320000B92CA4FE0FC0FE01E80DF11D80818033B2
:1032100021F49A2D997EA92E09C0A2FE06C0B3946E
:10322000B39404C08A2D867809F0B394A3FC11C02E
:10323000A0FE06C0B21488F4280C922C9B180EC075
:10324000B21460F4B60180E290E00E94B519B39424
:10325000F7CFB21418F42B1802C0982C212CA4FE1E
:1032600010C0B60180E390E00E94B519A2FE17C01D
:10327000A1FC03C088E790E002C088E590E0B601B9
:103280000CC08A2D867859F0A1FE02C08BE201C0E5
:1032900080E2A7FC8DE2B60190E00E94B519891486
:1032A00038F4B60180E390E00E94B5199A94F7CF04
:1032B0008A94F301E80DF11D8081B60190E00E942F
:1032C000B5198110F5CF222009F442CEB60180E273
:1032D00090E00E94B5192A94F6CFF6018681978175
:1032E00002C08FEF9FEF2B960FB6F894DEBF0FBE94
:1032F000CDBFDF91CF911F910F91FF90EF90DF90A5
:10330000CF90BF90AF909F908F907F906F905F9085
:103310004F903F902F900895992788270895FC019A
:103320000590615070400110D8F7809590958E0FF0
:103330009F1F0895FC016150704001900110D8F763
:10334000809590958E0F9F1F0895DC01FC01672FDB
:1033500071917723E1F7329704C07C916D9370836C
:103360006291AE17BF07C8F308950F931F93CF93D1
:10337000DF93FB01238121FD03C08FEF9FEF2CC062
:1033800022FF16C046815781248135814217530799
:1033900044F4A081B1819D012F5F3F4F3183208391
:1033A0008C93268137812F5F3F4F3783268314C04C
:1033B0008B01EC01FB010084F185E02D0995892B3F
:1033C000E1F6D80116968D919C9117970196179664
:1033D0009C938E931697CE01DF91CF911F910F9101
:1033E0000895FA01AA27283051F1203181F1E8949B
:1033F0006F936E7F6E5F7F4F8F4F9F4FAF4FB1E0E8
:103400003ED0B4E03CD0670F781F891F9A1FA11DE2
:10341000680F791F8A1F911DA11D6A0F711D811DE3
:10342000911DA11D20D009F468943F912AE0269FA8
:1034300011243019305D3193DEF6CF010895462F07
:103440004770405D4193B3E00FD0C9F7F6CF462FE8
:103450004F70405D4A3318F0495D31FD4052419351
:1034600002D0A9F7EACFB4E0A6959795879577950E
:103470006795BA95C9F700976105710508959B0195
:10348000AC010A2E06945795479537952795BA951E
:10349000C9F7620F731F841F951FA01D0895DC01DB
:1034A000CB01FC01E199FECF06C0FFBBEEBBE09A69
:1034B00031960DB20D9241505040B8F70895DC019D
:1034C000CB0103C02D910E946A1A41505040D0F7A1
:1034D0000895262FE199FECF9FBB8EBB2DBB0FB663
:1034E000F894E29AE19A0FBE01960895DB018F935A
:1034F0009F930E94DB13BF91AF91A29F800D911DFE
:10350000A39F900DB29F900D112408950E94650114
:1035100088E592E09F938F931F921F921F9281E004
:103520008F930E9468018DE692E09F938F931F9284
:103530001F921F9283E08F930E94680160E17EEAF0
:1035400088E290E00E9474018DB79EB70C960FB68A
:10355000F8949EBF0FBE8DBF0C940000F894FFCF6F
:10356000210326030050726F6772616D20310000E5
:1035700000000000000000000001010A0100537477
:103580006570310000000000000000000000000035
:103590000000000002011402005374657032000044
:1035A0000000000000000000000000000000000318
:1035B000011E050053746570330000000000000018
:1035C0000000000000000000000004012808005373
:1035D000746570340000000000000000000000006E
:1035E00000000000000501320200537465703500D0
:1035F00000000000000000000000000000000000CB
:10360000AA0820090000000003000000003A02811F
:1036100001000001504346312073746172743120FF
:103620006661696C65642E2E0050434631206661E8
:10363000696C65642061742073656E646164640004
:1036400050434620737461727431206661696C6501
:10365000642E2E005043462073656E64416464728C
:1036600065737331206661696C65642E2E00466156
:10367000696C65642073656E64696E6720746F2081
:10368000504346000000020E200000000000010030
:1036900007000100000008000000400000000001D9
:1036A00000000004000028E1E6B5040000C8001096
:1036B0006CED38010800FA00436174617374726F35
:1036C00070686963204661696C7572650045786948
:1036D00074696E672121005553415254204F4B2E7F
:1036E0002E2E0D00496E74657272757074732063AE
:1036F0006F6E666967757265642E2E2E0D004261CD
:103700007369632074696D657220636F6E666967A3
:10371000757265642E2E2E0D00414443206368614E
:103720006E6E656C203020636F6E666967757265BA
:10373000642E2E2E0D0049324320636F6D6D732071
:10374000636F6E666967757265642E2E2E0D007448
:103750007279696E67205254432E2E2E0D00496EE9
:10376000697469616C697A696E672E2E2E004B65EB
:103770007972657475726E6564203D2025640D0A4A
:10378000004175746F004D61696E0052544320739F
:103790007461727431206661696C65642E2E00520A
:1037A00054432073656E64416464726573733120A1
:1037B0006661696C65642E2E0052544320777269ED
:1037C00074652D32206661696C65642E2E0052543A
:1037D000432077726974652D31206661696C656478
:1037E0002E2E0052544320726570656174207374EC
:1037F000617274206661696C65642E2E00525443B8
:103800002073656E6441646472657373322066610F
:10381000696C65642E2E005254432072656365699D
:103820007665206661696C65642E2E0054696D654D
:103830003A004461793A200053756E646179004D15
:103840006F6E6461790054756573646179005765C2
:10385000646E65736461790054687572736461792C
:1038600000467269646179005361747572646179AC
:1038700000556E6B6E6F776E0052544320777269FD
:1038800074652074696D65206661696C65642E2EAF
:103890000052544320777269746520646174652016
:1038A0006661696C65642E2E00456E7465722054E5
:1038B000696D6520696E2032346820666F726D61B3
:1038C000742868683A6D6D3A7373293A0054696DCB
:1038D00065205570646174656420737563657373E6
:1038E00066756C6C792E2E5C4100496E76616C6950
:1038F0006420456E7472792E2E2025732000456E4B
:103900007465722044617465202864642F6D6D2F86
:103910007979293A00456E746572204461792028CE
:1039200053756E6461793A302C204D6F6E64617905
:103930003A312E2E2E292028302D36293A00446186
:103940007465205570646174656420737563657374
:103950007366756C6C792E2E00496E76616C6964A5
:1039600020456E7472792E2E0050574D2053657489
:1039700075703A007072657363616C65722073656F
:103980007420746F20256C750A0066726571756508
:103990006E63792073657420746F20256C750A68D6
:1039A0007A00746F702076616C75652028494352E7
:1039B00033292073657420746F20256C750A004EBE
:1039C0004F50524F4752414D00533A2532642C20FC
:1039D000456C61707365643D2532642C004C6F61E9
:1039E00064696E672070726F6772616D73206672B2
:1039F0006F6D20454550524F4D0D00416C6C6F630B
:103A00006174696E6720737061636520666F7220F0
:103A100070726F6772616D730D0057726974696EB1
:103A2000672074686520666F6C6C6F77696E6720BD
:103A300070726F6772616D20746F2070726F673182
:103A400020696E20454550524F4D0D0046696E6904
:103A500073686564210D0057726974696E6720741C
:103A6000686520666F6C6C6F77696E672070726F27
:103A70006772616D20746F2070726F673220696E9B
:103A800020454550524F4D0D0057726974696E675D
:103A90002074686520666F6C6C6F77696E67207044
:103AA000726F6772616D20746F2070726F67332060
:103AB000696E20454550524F4D0D004C6173742086
:103AC0005265736574204361757365642042793A69
:103AD0000D0A004E6F726D616C20506F7765722D0C
:103AE000446F776E0D0A0045787465726E616C20C4
:103AF00052657365740D0A0042726F776E4F75746C
:103B000020446574656374696F6E0D0A00576174B3
:103B10006368446F672054696D65720D0A004A54EA
:103B2000414720496E746572666163650D0A0055F0
:103B30006E6B6E6F776E0D0A004E6F2053656E735D
:103B40006F7220466F756E64200A0D0042757320F7
:103B50004572726F7221202F722F6E0053656E7343
:103B60006F72202564203D20005C78257800537416
:103B700065704E616D653A2025730D0A506F77654B
:103B8000723A20256425250D0A54696D653A202571
:103B900064730D0A003D3D3D3D3D3D3D3D3D3D3D98
:103BA0003D3D3D3D3D3D3D3D3D3D3D3D3D3D3D3D45
:103BB0003D3D3D3D3D3D3D3D3D3D3D3D3D3D3D3D35
:103BC0003D3D3D3D3D3D3D3D0D0025643A50726F0C
:103BD0006772616D204E616D653A2025730D0A0094
:103BE0002D2D2D2D2D2D2D2D2D2D2D2D2D2D2D2D05
:103BF0002D2D2D2D2D2D2D2D2D2D2D2D2D2D2D2DF5
:103C00002D2D2D2D2D2D2D2D2D2D2D2D2D2D2D2DE4
:103C10002D2D2D0D0050726F6772616D203D202596
:103C200064200D0A53746570203D2025640D0A2020
:103C300056616C7565203D2025640D0A0056616C47
:103C4000756520557064617465204B657920486105
:103C50006E646C6572202D204B65795072657373AC
:103C60002044657465637465640D00596F75206840
:103C70006176652073656C65637465642025640DE9
:103C80000A007570646174696E6720706F77657281
:103C900020746F2025643A2025730D0A0055706446
:103CA0006174696E672074696D652025643A20250A
:103CB000730D0A0076616C7565203D20256C690DD9
:103CC0000A004D61696E204B65792048616E646C15
:103CD0006572202D204B65795072657373204465A1
:103CE0007465637465640D004B48206368616E679A
:103CF000696E672066726F6D204D61696E20746F0A
:103D00002070726F6772616D53656C656374696F63
:103D10006E4B65790D0050726573732076616C751A
:103D20006520312D3420746F2073656C65637420B9
:103D300070726F6772616D0D00507265737320232E
:103D400020746F207375626D69740D0050726F6717
:103D500072616D2053656C656374696F6E0D005BF5
:103D600025645D25643A2025730D0A005072657341
:103D700073202320746F20636F6E6669726D0D006F
:103D80007072657373203020746F20676F206261DA
:103D9000636B0D0050256420532564205625640D67
:103DA0000A00537465702053656C656374696F6EA7
:103DB0000D00506F7765723D253032642525205403
:103DC000696D653D25303464730D0A0050726F676C
:103DD00072616D2053656C656374696F6E204B650D
:103DE000792048616E646C6572202D204B65795096
:103DF000726573732044657465637465640D00595E
:103E00006F752073656C65637465642070726F678D
:103E100072616D3A2025750D0A004B482063686178
:103E20006E67696E672066726F6D2070726F677261
:103E3000616D53656C656374696F6E4B6579207451
:103E40006F207374657053656C656374696F6E4B36
:103E500065790D0050726573732076616C7565200D
:103E6000312D3520746F2073656C65637420737415
:103E700065700D004B48202D20302053656C656324
:103E80007465642C2072657475726E696E67207437
:103E90006F206D61696E206D656E750D00537465E0
:103EA000702053656C656374696F6E204B65792073
:103EB00048616E646C6572202D204B657950726587
:103EC00073732044657465637465640D004B48200A
:103ED0006368616E67696E672066726F6D207374C8
:103EE000657053656C656374696F6E4B657920749A
:103EF0006F2076616C756553656C656374696F6E70
:103F00004B65790D005072657373203120666F72B6
:103F100020706F7765720D005072657373203220C8
:103F2000666F722054696D650D00796F752061723E
:103F300065207570646174696E6720706F77657253
:103F40000D00796F75206172652075706461746908
:103F50006E6720737465702074696D650D00686FFD
:103F6000772064696420796F7520676574206865BF
:103F700072653F210D00506C656173652073656C3F
:103F8000656374206561636820646563696D616C55
:103F900020696E20796F75722076616C75650D00F1
:103FA00056616C75652053656C656374696F6E202E
:103FB0004B65792048616E646C6572202D204B65DD
:103FC0007950726573732044657465637465640D1C
:103FD0000053656C656374656420746F2045646983
:103FE0007420506F77657220666F722070726F67F1
:103FF00072616D2025752C20537465702025750D18
:104000000A0053656C656374656420746F204564B1
:1040100069742054696D6520666F722070726F67D5
:1040200072616D2025752C20537465702025750DE7
:104030000A00456E746572696E672056616C75651D
:104040002055706461746520200D00507265737393
:10405000207468652076616C7565206F6E207468C9
:1040600065206B65797061642C0D00666F6C6C6FF8
:10407000776564206279202320746F20636F6E66F9
:0640800069726D200D00C5
:00000001FF
